{
  "transactions": [
    {
      "hash": "0x7182b138fb4c78ad99af0112fa7e7a4164b07fbb7c8c2c261afe81bfc2a843df",
      "transactionType": "CALL",
      "contractName": null,
      "contractAddress": "0x6b175474e89094c44da98b954eedeac495271d0f",
      "function": "approve(address,uint256)",
      "arguments": [
        "0xfA5ac4E80Bca21dad90b7877290c3fdfF4D0F680",
        "1000000000000000000000"
      ],
      "transaction": {
        "from": "0x1192ebae3138f066c3914e428c0a29a8e39668e7",
        "to": "0x6b175474e89094c44da98b954eedeac495271d0f",
        "gas": "0xf90a",
        "value": "0x0",
        "input": "0x095ea7b3000000000000000000000000fa5ac4e80bca21dad90b7877290c3fdff4d0f68000000000000000000000000000000000000000000000003635c9adc5dea00000",
        "nonce": "0x27",
        "chainId": "0x8"
      },
      "additionalContracts": [],
      "isFixedGasLimit": false
    },
    {
      "hash": "0xf0738a152f19c6227ff1a0ba59faf28aafb64d7dfd1dccd3812474f22f3f559f",
      "transactionType": "CALL",
      "contractName": null,
      "contractAddress": "0xfa5ac4e80bca21dad90b7877290c3fdff4d0f680",
      "function": "deposit(uint256,address)",
      "arguments": [
        "1000000000000000000000",
        "0x1192ebAE3138F066c3914E428c0a29A8e39668E7"
      ],
      "transaction": {
        "from": "0x1192ebae3138f066c3914e428c0a29a8e39668e7",
        "to": "0xfa5ac4e80bca21dad90b7877290c3fdff4d0f680",
        "gas": "0x34ca8",
        "value": "0x0",
        "input": "0x6e553f6500000000000000000000000000000000000000000000003635c9adc5dea000000000000000000000000000001192ebae3138f066c3914e428c0a29a8e39668e7",
        "nonce": "0x28",
        "chainId": "0x8"
      },
      "additionalContracts": [],
      "isFixedGasLimit": false
    }
  ],
  "receipts": [
    {
      "status": "0x1",
      "cumulativeGasUsed": "0xb44e",
      "logs": [
        {
          "address": "0x6b175474e89094c44da98b954eedeac495271d0f",
          "topics": [
            "0x8c5be1e5ebec7d5bd14f71427d1e84f3dd0314c0f7b2291e5b200ac8c7c3b925",
            "0x0000000000000000000000001192ebae3138f066c3914e428c0a29a8e39668e7",
            "0x000000000000000000000000fa5ac4e80bca21dad90b7877290c3fdff4d0f680"
          ],
          "data": "0x00000000000000000000000000000000000000000000003635c9adc5dea00000",
          "blockHash": "0xfd27665f86f89890d38d291f28a0109e63a732317eb3354ed21ec45fc16608a8",
          "blockNumber": "0x16abd06",
          "transactionHash": "0x7182b138fb4c78ad99af0112fa7e7a4164b07fbb7c8c2c261afe81bfc2a843df",
          "transactionIndex": "0x0",
          "logIndex": "0x0",
          "removed": false
        }
      ],
      "logsBloom": "0x0000020000000000000000000000000000000000000000000000000000000000000000000200000000000000000000000000000000000000000000000020000000000000000000000000000a000000000000000000000000000000000000000010000000000000000000000000000000000000000000040000000000000000000000000000000000000000000000000000000000000000000000000000000000020000000000000000000000000000000000000000000000000000000000000000000000000000000800000000000000000002000000000000000000000000000210000000000000000000000000000000000000000000000000000000000000",
      "type": "0x0",
      "transactionHash": "0x7182b138fb4c78ad99af0112fa7e7a4164b07fbb7c8c2c261afe81bfc2a843df",
      "transactionIndex": "0x0",
      "blockHash": "0xfd27665f86f89890d38d291f28a0109e63a732317eb3354ed21ec45fc16608a8",
      "blockNumber": "0x16abd06",
      "gasUsed": "0xb44e",
      "effectiveGasPrice": "0x1",
      "blobGasUsed": "0x0",
      "from": "0x1192ebae3138f066c3914e428c0a29a8e39668e7",
      "to": "0x6b175474e89094c44da98b954eedeac495271d0f",
      "contractAddress": null
    },
    {
      "status": "0x1",
      "cumulativeGasUsed": "0x26385",
      "logs": [
        {
          "address": "0x6b175474e89094c44da98b954eedeac495271d0f",
          "topics": [
            "0xddf252ad1be2c89b69c2b068fc378daa952ba7f163c4a11628f55a4df523b3ef",
            "0x0000000000000000000000001192ebae3138f066c3914e428c0a29a8e39668e7",
            "0x000000000000000000000000fa5ac4e80bca21dad90b7877290c3fdff4d0f680"
          ],
          "data": "0x00000000000000000000000000000000000000000000003635c9adc5dea00000",
          "blockHash": "0x9b57552faab8b8956186d9e69083277478276a1dfca2d4fe2c0be7148579a09c",
          "blockNumber": "0x16abd07",
          "transactionHash": "0xf0738a152f19c6227ff1a0ba59faf28aafb64d7dfd1dccd3812474f22f3f559f",
          "transactionIndex": "0x0",
          "logIndex": "0x0",
          "removed": false
        },
        {
          "address": "0xfa5ac4e80bca21dad90b7877290c3fdff4d0f680",
          "topics": [
            "0xddf252ad1be2c89b69c2b068fc378daa952ba7f163c4a11628f55a4df523b3ef",
            "0x0000000000000000000000000000000000000000000000000000000000000000",
            "0x0000000000000000000000001192ebae3138f066c3914e428c0a29a8e39668e7"
          ],
          "data": "0x00000000000000000000000000000000000000000000003635c9adc5dea00000",
          "blockHash": "0x9b57552faab8b8956186d9e69083277478276a1dfca2d4fe2c0be7148579a09c",
          "blockNumber": "0x16abd07",
          "transactionHash": "0xf0738a152f19c6227ff1a0ba59faf28aafb64d7dfd1dccd3812474f22f3f559f",
          "transactionIndex": "0x0",
          "logIndex": "0x1",
          "removed": false
        },
        {
          "address": "0xfa5ac4e80bca21dad90b7877290c3fdff4d0f680",
          "topics": [
            "0xdcbc1c05240f31ff3ad067ef1ee35ce4997762752e3a095284754544f4c709d7",
            "0x0000000000000000000000001192ebae3138f066c3914e428c0a29a8e39668e7",
            "0x0000000000000000000000001192ebae3138f066c3914e428c0a29a8e39668e7"
          ],
          "data": "0x00000000000000000000000000000000000000000000003635c9adc5dea0000000000000000000000000000000000000000000000000003635c9adc5dea00000",
          "blockHash": "0x9b57552faab8b8956186d9e69083277478276a1dfca2d4fe2c0be7148579a09c",
          "blockNumber": "0x16abd07",
          "transactionHash": "0xf0738a152f19c6227ff1a0ba59faf28aafb64d7dfd1dccd3812474f22f3f559f",
          "transactionIndex": "0x0",
          "logIndex": "0x2",
          "removed": false
        }
      ],
      "logsBloom": "0x0000020000000000000000000000000000000000000000000000000000000000000000000200000000000000000000000400000000000000000000000000000000000040000000000000000a000000000000000000000000000000000000000010000000020000000000000000000800000000000004040000000010000000000000000000000000000000000040000000000000000000000000000000000001000000000000000000000000000000000000000000000000000000000000000000000002000000000800000000000000000002000008000000000000000020000200000000000000000000000000000000000000000000000000000000000000",
      "type": "0x0",
      "transactionHash": "0xf0738a152f19c6227ff1a0ba59faf28aafb64d7dfd1dccd3812474f22f3f559f",
      "transactionIndex": "0x0",
      "blockHash": "0x9b57552faab8b8956186d9e69083277478276a1dfca2d4fe2c0be7148579a09c",
      "blockNumber": "0x16abd07",
      "gasUsed": "0x26385",
      "effectiveGasPrice": "0x1",
      "blobGasUsed": "0x0",
      "from": "0x1192ebae3138f066c3914e428c0a29a8e39668e7",
      "to": "0xfa5ac4e80bca21dad90b7877290c3fdff4d0f680",
      "contractAddress": null
    }
  ],
  "libraries": [],
  "pending": [],
  "returns": {},
  "timestamp": 1762820813707,
  "chain": 8,
  "commit": "fde4358"
}