{
  "transactions": [
    {
      "hash": "0xbe27c8ba00ef00525c09f005cf689b7d985df23dc826556f70acb6fbd898e277",
      "transactionType": "CALL",
      "contractName": null,
      "contractAddress": "0x6b175474e89094c44da98b954eedeac495271d0f",
      "function": "approve(address,uint256)",
      "arguments": [
        "0xfA5ac4E80Bca21dad90b7877290c3fdfF4D0F680",
        "10000000000000000000000"
      ],
      "transaction": {
        "from": "0x1192ebae3138f066c3914e428c0a29a8e39668e7",
        "to": "0x6b175474e89094c44da98b954eedeac495271d0f",
        "value": "0x0",
        "input": "0x095ea7b3000000000000000000000000fa5ac4e80bca21dad90b7877290c3fdff4d0f68000000000000000000000000000000000000000000000021e19e0c9bab2400000",
        "nonce": "0x47",
        "chainId": "0x8"
      },
      "additionalContracts": [],
      "isFixedGasLimit": false
    },
    {
      "hash": null,
      "transactionType": "CALL",
      "contractName": null,
      "contractAddress": "0xfa5ac4e80bca21dad90b7877290c3fdff4d0f680",
      "function": "deposit(uint256,address)",
      "arguments": [
        "10000000000000000000000",
        "0x1192ebAE3138F066c3914E428c0a29A8e39668E7"
      ],
      "transaction": {
        "from": "0x1192ebae3138f066c3914e428c0a29a8e39668e7",
        "to": "0xfa5ac4e80bca21dad90b7877290c3fdff4d0f680",
        "value": "0x0",
        "input": "0x6e553f6500000000000000000000000000000000000000000000021e19e0c9bab24000000000000000000000000000001192ebae3138f066c3914e428c0a29a8e39668e7",
        "nonce": "0x48",
        "chainId": "0x8"
      },
      "additionalContracts": [],
      "isFixedGasLimit": false
    },
    {
      "hash": null,
      "transactionType": "CALL",
      "contractName": null,
      "contractAddress": "0xfa5ac4e80bca21dad90b7877290c3fdff4d0f680",
      "function": "initializeHarvest()",
      "arguments": [],
      "transaction": {
        "from": "0x1192ebae3138f066c3914e428c0a29a8e39668e7",
        "to": "0xfa5ac4e80bca21dad90b7877290c3fdff4d0f680",
        "value": "0x0",
        "input": "0xb27df41a",
        "nonce": "0x49",
        "chainId": "0x8"
      },
      "additionalContracts": [],
      "isFixedGasLimit": false
    },
    {
      "hash": null,
      "transactionType": "CALL",
      "contractName": null,
      "contractAddress": "0xfa5ac4e80bca21dad90b7877290c3fdff4d0f680",
      "function": "depositToStrategies(uint256)",
      "arguments": [
        "8000000000000000000000"
      ],
      "transaction": {
        "from": "0x1192ebae3138f066c3914e428c0a29a8e39668e7",
        "to": "0xfa5ac4e80bca21dad90b7877290c3fdff4d0f680",
        "value": "0x0",
        "input": "0x4614b8960000000000000000000000000000000000000000000001b1ae4d6e2ef5000000",
        "nonce": "0x4a",
        "chainId": "0x8"
      },
      "additionalContracts": [],
      "isFixedGasLimit": false
    },
    {
      "hash": null,
      "transactionType": "CALL",
      "contractName": null,
      "contractAddress": "0x35391ca5f9beb7f4488671fcbad0ee709603fec4",
      "function": "registerProject(address,string,string)",
      "arguments": [
        "0x1111111111111111111111111111111111111111",
        "Web3 Security Library",
        "Open-source security auditing tools"
      ],
      "transaction": {
        "from": "0x1192ebae3138f066c3914e428c0a29a8e39668e7",
        "to": "0x35391ca5f9beb7f4488671fcbad0ee709603fec4",
        "value": "0x0",
        "input": "0x822463960000000000000000000000001111111111111111111111111111111111111111000000000000000000000000000000000000000000000000000000000000006000000000000000000000000000000000000000000000000000000000000000a0000000000000000000000000000000000000000000000000000000000000001557656233205365637572697479204c696272617279000000000000000000000000000000000000000000000000000000000000000000000000000000000000234f70656e2d736f75726365207365637572697479206175646974696e6720746f6f6c730000000000000000000000000000000000000000000000000000000000",
        "nonce": "0x4b",
        "chainId": "0x8"
      },
      "additionalContracts": [],
      "isFixedGasLimit": false
    },
    {
      "hash": null,
      "transactionType": "CALL",
      "contractName": null,
      "contractAddress": "0x35391ca5f9beb7f4488671fcbad0ee709603fec4",
      "function": "registerProject(address,string,string)",
      "arguments": [
        "0x2222222222222222222222222222222222222222",
        "Carbon Offset Protocol",
        "Blockchain-based carbon credits"
      ],
      "transaction": {
        "from": "0x1192ebae3138f066c3914e428c0a29a8e39668e7",
        "to": "0x35391ca5f9beb7f4488671fcbad0ee709603fec4",
        "value": "0x0",
        "input": "0x822463960000000000000000000000002222222222222222222222222222222222222222000000000000000000000000000000000000000000000000000000000000006000000000000000000000000000000000000000000000000000000000000000a00000000000000000000000000000000000000000000000000000000000000016436172626f6e204f66667365742050726f746f636f6c00000000000000000000000000000000000000000000000000000000000000000000000000000000001f426c6f636b636861696e2d626173656420636172626f6e206372656469747300",
        "nonce": "0x4c",
        "chainId": "0x8"
      },
      "additionalContracts": [],
      "isFixedGasLimit": false
    },
    {
      "hash": null,
      "transactionType": "CALL",
      "contractName": null,
      "contractAddress": "0x35391ca5f9beb7f4488671fcbad0ee709603fec4",
      "function": "registerProject(address,string,string)",
      "arguments": [
        "0x3333333333333333333333333333333333333333",
        "DeFi Education DAO",
        "Free DeFi education resources"
      ],
      "transaction": {
        "from": "0x1192ebae3138f066c3914e428c0a29a8e39668e7",
        "to": "0x35391ca5f9beb7f4488671fcbad0ee709603fec4",
        "value": "0x0",
        "input": "0x822463960000000000000000000000003333333333333333333333333333333333333333000000000000000000000000000000000000000000000000000000000000006000000000000000000000000000000000000000000000000000000000000000a000000000000000000000000000000000000000000000000000000000000000124465466920456475636174696f6e2044414f0000000000000000000000000000000000000000000000000000000000000000000000000000000000000000001d46726565204465466920656475636174696f6e207265736f7572636573000000",
        "nonce": "0x4d",
        "chainId": "0x8"
      },
      "additionalContracts": [],
      "isFixedGasLimit": false
    },
    {
      "hash": null,
      "transactionType": "CALL",
      "contractName": null,
      "contractAddress": "0x6b175474e89094c44da98b954eedeac495271d0f",
      "function": "transfer(address,uint256)",
      "arguments": [
        "0x11515c43c025016d2ac8d627889c721ef7042317",
        "1000000000000000000"
      ],
      "transaction": {
        "from": "0x1192ebae3138f066c3914e428c0a29a8e39668e7",
        "to": "0x6b175474e89094c44da98b954eedeac495271d0f",
        "value": "0x0",
        "input": "0xa9059cbb00000000000000000000000011515c43c025016d2ac8d627889c721ef70423170000000000000000000000000000000000000000000000000de0b6b3a7640000",
        "nonce": "0x4e",
        "chainId": "0x8"
      },
      "additionalContracts": [],
      "isFixedGasLimit": false
    },
    {
      "hash": null,
      "transactionType": "CALL",
      "contractName": null,
      "contractAddress": "0xfa5ac4e80bca21dad90b7877290c3fdff4d0f680",
      "function": "harvest()",
      "arguments": [],
      "transaction": {
        "from": "0x1192ebae3138f066c3914e428c0a29a8e39668e7",
        "to": "0xfa5ac4e80bca21dad90b7877290c3fdff4d0f680",
        "value": "0x0",
        "input": "0x4641257d",
        "nonce": "0x4f",
        "chainId": "0x8"
      },
      "additionalContracts": [],
      "isFixedGasLimit": false
    },
    {
      "hash": null,
      "transactionType": "CALL",
      "contractName": null,
      "contractAddress": "0x35391ca5f9beb7f4488671fcbad0ee709603fec4",
      "function": "startRound(uint256)",
      "arguments": [
        "604800"
      ],
      "transaction": {
        "from": "0x1192ebae3138f066c3914e428c0a29a8e39668e7",
        "to": "0x35391ca5f9beb7f4488671fcbad0ee709603fec4",
        "value": "0x0",
        "input": "0x5fc3d52d0000000000000000000000000000000000000000000000000000000000093a80",
        "nonce": "0x50",
        "chainId": "0x8"
      },
      "additionalContracts": [],
      "isFixedGasLimit": false
    },
    {
      "hash": null,
      "transactionType": "CALL",
      "contractName": null,
      "contractAddress": "0xfa5ac4e80bca21dad90b7877290c3fdff4d0f680",
      "function": "approve(address,uint256)",
      "arguments": [
        "0x35391ca5F9bEb7f4488671fCbad0Ee709603Fec4",
        "50000000000000000000"
      ],
      "transaction": {
        "from": "0x1192ebae3138f066c3914e428c0a29a8e39668e7",
        "to": "0xfa5ac4e80bca21dad90b7877290c3fdff4d0f680",
        "value": "0x0",
        "input": "0x095ea7b300000000000000000000000035391ca5f9beb7f4488671fcbad0ee709603fec4000000000000000000000000000000000000000000000002b5e3af16b1880000",
        "nonce": "0x51",
        "chainId": "0x8"
      },
      "additionalContracts": [],
      "isFixedGasLimit": false
    },
    {
      "hash": null,
      "transactionType": "CALL",
      "contractName": null,
      "contractAddress": "0x35391ca5f9beb7f4488671fcbad0ee709603fec4",
      "function": "addToMatchingPool(uint256)",
      "arguments": [
        "50000000000000000000"
      ],
      "transaction": {
        "from": "0x1192ebae3138f066c3914e428c0a29a8e39668e7",
        "to": "0x35391ca5f9beb7f4488671fcbad0ee709603fec4",
        "value": "0x0",
        "input": "0xd07cfea4000000000000000000000000000000000000000000000002b5e3af16b1880000",
        "nonce": "0x52",
        "chainId": "0x8"
      },
      "additionalContracts": [],
      "isFixedGasLimit": false
    },
    {
      "hash": null,
      "transactionType": "CALL",
      "contractName": null,
      "contractAddress": "0xfa5ac4e80bca21dad90b7877290c3fdff4d0f680",
      "function": "approve(address,uint256)",
      "arguments": [
        "0x35391ca5F9bEb7f4488671fCbad0Ee709603Fec4",
        "100000000000000000000"
      ],
      "transaction": {
        "from": "0x1192ebae3138f066c3914e428c0a29a8e39668e7",
        "to": "0xfa5ac4e80bca21dad90b7877290c3fdff4d0f680",
        "value": "0x0",
        "input": "0x095ea7b300000000000000000000000035391ca5f9beb7f4488671fcbad0ee709603fec40000000000000000000000000000000000000000000000056bc75e2d63100000",
        "nonce": "0x53",
        "chainId": "0x8"
      },
      "additionalContracts": [],
      "isFixedGasLimit": false
    },
    {
      "hash": null,
      "transactionType": "CALL",
      "contractName": null,
      "contractAddress": "0x35391ca5f9beb7f4488671fcbad0ee709603fec4",
      "function": "vote(uint256,uint256)",
      "arguments": [
        "0",
        "50000000000000000000"
      ],
      "transaction": {
        "from": "0x1192ebae3138f066c3914e428c0a29a8e39668e7",
        "to": "0x35391ca5f9beb7f4488671fcbad0ee709603fec4",
        "value": "0x0",
        "input": "0xb384abef0000000000000000000000000000000000000000000000000000000000000000000000000000000000000000000000000000000000000002b5e3af16b1880000",
        "nonce": "0x54",
        "chainId": "0x8"
      },
      "additionalContracts": [],
      "isFixedGasLimit": false
    },
    {
      "hash": null,
      "transactionType": "CALL",
      "contractName": null,
      "contractAddress": "0x35391ca5f9beb7f4488671fcbad0ee709603fec4",
      "function": "vote(uint256,uint256)",
      "arguments": [
        "1",
        "30000000000000000000"
      ],
      "transaction": {
        "from": "0x1192ebae3138f066c3914e428c0a29a8e39668e7",
        "to": "0x35391ca5f9beb7f4488671fcbad0ee709603fec4",
        "value": "0x0",
        "input": "0xb384abef0000000000000000000000000000000000000000000000000000000000000001000000000000000000000000000000000000000000000001a055690d9db80000",
        "nonce": "0x55",
        "chainId": "0x8"
      },
      "additionalContracts": [],
      "isFixedGasLimit": false
    },
    {
      "hash": null,
      "transactionType": "CALL",
      "contractName": null,
      "contractAddress": "0x35391ca5f9beb7f4488671fcbad0ee709603fec4",
      "function": "vote(uint256,uint256)",
      "arguments": [
        "2",
        "20000000000000000000"
      ],
      "transaction": {
        "from": "0x1192ebae3138f066c3914e428c0a29a8e39668e7",
        "to": "0x35391ca5f9beb7f4488671fcbad0ee709603fec4",
        "value": "0x0",
        "input": "0xb384abef0000000000000000000000000000000000000000000000000000000000000002000000000000000000000000000000000000000000000001158e460913d00000",
        "nonce": "0x56",
        "chainId": "0x8"
      },
      "additionalContracts": [],
      "isFixedGasLimit": false
    },
    {
      "hash": null,
      "transactionType": "CALL",
      "contractName": null,
      "contractAddress": "0x35391ca5f9beb7f4488671fcbad0ee709603fec4",
      "function": "endRound()",
      "arguments": [],
      "transaction": {
        "from": "0x1192ebae3138f066c3914e428c0a29a8e39668e7",
        "to": "0x35391ca5f9beb7f4488671fcbad0ee709603fec4",
        "value": "0x0",
        "input": "0x749aa2d9",
        "nonce": "0x57",
        "chainId": "0x8"
      },
      "additionalContracts": [],
      "isFixedGasLimit": false
    }
  ],
  "receipts": [
    {
      "status": "0x1",
      "cumulativeGasUsed": "0xb45a",
      "logs": [
        {
          "address": "0x6b175474e89094c44da98b954eedeac495271d0f",
          "topics": [
            "0x8c5be1e5ebec7d5bd14f71427d1e84f3dd0314c0f7b2291e5b200ac8c7c3b925",
            "0x0000000000000000000000001192ebae3138f066c3914e428c0a29a8e39668e7",
            "0x000000000000000000000000fa5ac4e80bca21dad90b7877290c3fdff4d0f680"
          ],
          "data": "0x00000000000000000000000000000000000000000000021e19e0c9bab2400000",
          "blockHash": "0x8b373851d9dd6a6d0471e0aa2d669ecb048629e18a6cda4815099e5732847b73",
          "blockNumber": "0x16abe45",
          "transactionHash": "0xbe27c8ba00ef00525c09f005cf689b7d985df23dc826556f70acb6fbd898e277",
          "transactionIndex": "0x0",
          "logIndex": "0x0",
          "removed": false
        }
      ],
      "logsBloom": "0x0000020000000000000000000000000000000000000000000000000000000000000000000200000000000000000000000000000000000000000000000020000000000000000000000000000a000000000000000000000000000000000000000010000000000000000000000000000000000000000000040000000000000000000000000000000000000000000000000000000000000000000000000000000000020000000000000000000000000000000000000000000000000000000000000000000000000000000800000000000000000002000000000000000000000000000210000000000000000000000000000000000000000000000000000000000000",
      "type": "0x0",
      "transactionHash": "0xbe27c8ba00ef00525c09f005cf689b7d985df23dc826556f70acb6fbd898e277",
      "transactionIndex": "0x0",
      "blockHash": "0x8b373851d9dd6a6d0471e0aa2d669ecb048629e18a6cda4815099e5732847b73",
      "blockNumber": "0x16abe45",
      "gasUsed": "0xb45a",
      "effectiveGasPrice": "0x1",
      "blobGasUsed": "0x0",
      "from": "0x1192ebae3138f066c3914e428c0a29a8e39668e7",
      "to": "0x6b175474e89094c44da98b954eedeac495271d0f",
      "contractAddress": null
    }
  ],
  "libraries": [],
  "pending": [],
  "returns": {},
  "timestamp": 1762824708607,
  "chain": 8,
  "commit": "fde4358"
}