{
  "transactions": [
    {
      "hash": "0x630837809461288cd78972a6d1f3566172ce68d4a77a092239895be1270f139f",
      "transactionType": "CALL",
      "contractName": null,
      "contractAddress": "0xfa5ac4e80bca21dad90b7877290c3fdff4d0f680",
      "function": "setYieldAggregator(address)",
      "arguments": [
        "0xB9ACBBa0E2B8b97a22A84504B05769cBCdb907c2"
      ],
      "transaction": {
        "from": "0x1192ebae3138f066c3914e428c0a29a8e39668e7",
        "to": "0xfa5ac4e80bca21dad90b7877290c3fdff4d0f680",
        "gas": "0x13c3d",
        "value": "0x0",
        "input": "0x992b48de000000000000000000000000b9acbba0e2b8b97a22a84504b05769cbcdb907c2",
        "nonce": "0x20",
        "chainId": "0x8"
      },
      "additionalContracts": [],
      "isFixedGasLimit": false
    },
    {
      "hash": "0x80f1283bd19dd0abb6cb09eb941b501e9c6168a5ddde390c483c953ee0534cf3",
      "transactionType": "CALL",
      "contractName": null,
      "contractAddress": "0x2876cc2a624fe603434404d9c10b097b737de983",
      "function": "setVault(address)",
      "arguments": [
        "0xB9ACBBa0E2B8b97a22A84504B05769cBCdb907c2"
      ],
      "transaction": {
        "from": "0x1192ebae3138f066c3914e428c0a29a8e39668e7",
        "to": "0x2876cc2a624fe603434404d9c10b097b737de983",
        "gas": "0xa457",
        "value": "0x0",
        "input": "0x6817031b000000000000000000000000b9acbba0e2b8b97a22a84504b05769cbcdb907c2",
        "nonce": "0x21",
        "chainId": "0x8"
      },
      "additionalContracts": [],
      "isFixedGasLimit": false
    },
    {
      "hash": "0x1a8d77ad2106ddb6fd98a035b4668fb745729076056fcb80c29d9e1ddc9246d8",
      "transactionType": "CALL",
      "contractName": null,
      "contractAddress": "0xfd344cf335f9ee1d5afe731aa6e50a0bc380e082",
      "function": "setVault(address)",
      "arguments": [
        "0xB9ACBBa0E2B8b97a22A84504B05769cBCdb907c2"
      ],
      "transaction": {
        "from": "0x1192ebae3138f066c3914e428c0a29a8e39668e7",
        "to": "0xfd344cf335f9ee1d5afe731aa6e50a0bc380e082",
        "gas": "0xae23",
        "value": "0x0",
        "input": "0x6817031b000000000000000000000000b9acbba0e2b8b97a22a84504b05769cbcdb907c2",
        "nonce": "0x22",
        "chainId": "0x8"
      },
      "additionalContracts": [],
      "isFixedGasLimit": false
    }
  ],
  "receipts": [
    {
      "status": "0x1",
      "cumulativeGasUsed": "0x76fc",
      "logs": [
        {
          "address": "0x2876cc2a624fe603434404d9c10b097b737de983",
          "topics": [
            "0x483bdedaaf23706a9800ac1af0d852b34927780d79f9d6ba60a80c7cad75ea39",
            "0x0000000000000000000000000000000000000000000000000000000000000001",
            "0x000000000000000000000000b9acbba0e2b8b97a22a84504b05769cbcdb907c2"
          ],
          "data": "0x",
          "blockHash": "0xc1f8dfa7a80550d88736dd58289774f11f1e18d6f9111c4eb1376728c64123c7",
          "blockNumber": "0x169faa9",
          "transactionHash": "0x80f1283bd19dd0abb6cb09eb941b501e9c6168a5ddde390c483c953ee0534cf3",
          "transactionIndex": "0x0",
          "logIndex": "0x0",
          "removed": false
        }
      ],
      "logsBloom": "0x00000000000000000000000000000000000000000000000000080008000000000000000000000000000000000000000200000000000040000020000000040000000000000000000000000008020000000000000000040000000000000000000000000000000000000000000000000000000000000000000000000200000000000000000000000000000000000000000000000000000000000000000000000000000000000000000000000000000000000000000000000000000000000000000000000000000000000000000000000000000000000000000000000000000040000000000000000000000000000000000000000000000000200000000000000000",
      "type": "0x0",
      "transactionHash": "0x80f1283bd19dd0abb6cb09eb941b501e9c6168a5ddde390c483c953ee0534cf3",
      "transactionIndex": "0x0",
      "blockHash": "0xc1f8dfa7a80550d88736dd58289774f11f1e18d6f9111c4eb1376728c64123c7",
      "blockNumber": "0x169faa9",
      "gasUsed": "0x76fc",
      "effectiveGasPrice": "0x1",
      "blobGasUsed": "0x0",
      "from": "0x1192ebae3138f066c3914e428c0a29a8e39668e7",
      "to": "0x2876cc2a624fe603434404d9c10b097b737de983",
      "contractAddress": null
    },
    {
      "status": "0x1",
      "cumulativeGasUsed": "0xe4f4",
      "logs": [
        {
          "address": "0x6b175474e89094c44da98b954eedeac495271d0f",
          "topics": [
            "0x8c5be1e5ebec7d5bd14f71427d1e84f3dd0314c0f7b2291e5b200ac8c7c3b925",
            "0x000000000000000000000000fa5ac4e80bca21dad90b7877290c3fdff4d0f680",
            "0x000000000000000000000000b9acbba0e2b8b97a22a84504b05769cbcdb907c2"
          ],
          "data": "0xffffffffffffffffffffffffffffffffffffffffffffffffffffffffffffffff",
          "blockHash": "0xfd9f4b4ff77bbfa3a12f1ae51e3d35826cbae80609d5ccf49119d2af68cf7d69",
          "blockNumber": "0x169faaa",
          "transactionHash": "0x630837809461288cd78972a6d1f3566172ce68d4a77a092239895be1270f139f",
          "transactionIndex": "0x0",
          "logIndex": "0x0",
          "removed": false
        },
        {
          "address": "0xfa5ac4e80bca21dad90b7877290c3fdff4d0f680",
          "topics": [
            "0x4de9148f642d6fb56c416e73879bdd4f3d3505ad5e2023fdb84d55732494fe96",
            "0x000000000000000000000000380fa17f364e00d7f7d00845a138062d8913a30b",
            "0x000000000000000000000000b9acbba0e2b8b97a22a84504b05769cbcdb907c2"
          ],
          "data": "0x",
          "blockHash": "0xfd9f4b4ff77bbfa3a12f1ae51e3d35826cbae80609d5ccf49119d2af68cf7d69",
          "blockNumber": "0x169faaa",
          "transactionHash": "0x630837809461288cd78972a6d1f3566172ce68d4a77a092239895be1270f139f",
          "transactionIndex": "0x0",
          "logIndex": "0x1",
          "removed": false
        }
      ],
      "logsBloom": "0x0000000000000000100000000000000000000000000000000000000800000000000000000200000000000000000000000400000000024000002000000020001000000000000000000000000a000100008000000000000000000000000000000010000000000000000000000000000000000000000000040000000000000000000000000000000000000000000040000000000000000010000000000000000001020000000000000000000000000000000000000000000000000000000000000000000000000000000000000000000000000002000000000000000000000000000010000000000000000000000000000000000000000000000000000000000000",
      "type": "0x0",
      "transactionHash": "0x630837809461288cd78972a6d1f3566172ce68d4a77a092239895be1270f139f",
      "transactionIndex": "0x0",
      "blockHash": "0xfd9f4b4ff77bbfa3a12f1ae51e3d35826cbae80609d5ccf49119d2af68cf7d69",
      "blockNumber": "0x169faaa",
      "gasUsed": "0xe4f4",
      "effectiveGasPrice": "0x1",
      "blobGasUsed": "0x0",
      "from": "0x1192ebae3138f066c3914e428c0a29a8e39668e7",
      "to": "0xfa5ac4e80bca21dad90b7877290c3fdff4d0f680",
      "contractAddress": null
    },
    {
      "status": "0x1",
      "cumulativeGasUsed": "0x7712",
      "logs": [
        {
          "address": "0xfd344cf335f9ee1d5afe731aa6e50a0bc380e082",
          "topics": [
            "0x483bdedaaf23706a9800ac1af0d852b34927780d79f9d6ba60a80c7cad75ea39",
            "0x000000000000000000000000380fa17f364e00d7f7d00845a138062d8913a30b",
            "0x000000000000000000000000b9acbba0e2b8b97a22a84504b05769cbcdb907c2"
          ],
          "data": "0x",
          "blockHash": "0xcacfc5f0659087ed935194d69fde5ea7cf55e0433c6c9f4bb1bd035afb62be02",
          "blockNumber": "0x169faab",
          "transactionHash": "0x1a8d77ad2106ddb6fd98a035b4668fb745729076056fcb80c29d9e1ddc9246d8",
          "transactionIndex": "0x0",
          "logIndex": "0x0",
          "removed": false
        }
      ],
      "logsBloom": "0x00000000000000001000000000000000000000000000000000000008000000000000000000000000000000000000000200000000000040000020000000000010000000000000000000000000000100000000000000000000000000000000000000000000000000000000000000000000000000000000000000000200000000000000000000000000000000000000000000000000000000000000000000000000000000000000000000000000000000000000000000000000040000000000000000000000000000000000000000000000000000000000041000000000000000000000000000000000000000000000000000000000000000200000000000000000",
      "type": "0x0",
      "transactionHash": "0x1a8d77ad2106ddb6fd98a035b4668fb745729076056fcb80c29d9e1ddc9246d8",
      "transactionIndex": "0x0",
      "blockHash": "0xcacfc5f0659087ed935194d69fde5ea7cf55e0433c6c9f4bb1bd035afb62be02",
      "blockNumber": "0x169faab",
      "gasUsed": "0x7712",
      "effectiveGasPrice": "0x1",
      "blobGasUsed": "0x0",
      "from": "0x1192ebae3138f066c3914e428c0a29a8e39668e7",
      "to": "0xfd344cf335f9ee1d5afe731aa6e50a0bc380e082",
      "contractAddress": null
    }
  ],
  "libraries": [],
  "pending": [],
  "returns": {},
  "timestamp": 1762725273601,
  "chain": 8,
  "commit": "1e89a2c"
}